:020000040800F2
:1000000000500020E5080008150800082108000835
:10001000270800082D080008330800080000000029
:100020000000000000000000000000003908000887
:100030004508000800000000510800085D0800089D
:100040002D0900082D0900082D0900082D090008B8
:100050002D0900082D0900082D0900082D090008A8
:100060002D0900082D0900082D0900082D09000898
:100070002D0900082D0900082D0900082D09000888
:100080002D0900082D0900082D0900082D09000878
:100090002D0900082D0900082D0900082D09000868
:1000A0002D0900082D0900082D0900082D09000858
:1000B0002D0900082D0900082D0900082D09000848
:1000C0002D0900082D0900082D0900082D09000838
:1000D0002D0900082D0900082D09000869080008ED
:1000E0002D0900082D0900082D0900080000000056
:1000F0000000000000000000000000000000000000
:0C01000000000000000000005FF808F1A3
:10010C0010B5054C237833B9044B13B10448AFF345
:10011C0000800123237010BD0C00002000000000A3
:10012C001823000808B5034B1BB103490348AFF370
:10013C00008008BD000000001000002018230008FB
:10014C0080B58AB000AF78607B681B68264A934202
:10015C0046D1264B1B78022B03D0244B1B78322B19
:10016C0039D107F1100316220021184602F0C6F807
:10017C001F4A07F110031068186012791A7107F101
:10018C00100305331B4A1168196012791A7107F1B3
:10019C0010030A33184A1168196012791A7107F1A1
:1001AC0010030F33154A1168196012791A7107F18F
:1001BC0010031421184600F025F80346FB8107F1C3
:1001CC0010031433FA891A8007F110010A2316223E
:1001DC000B4801F08AFB01220449094801F0C4FCD8
:1001EC0000BF2837BD4680BD00480040C00000203D
:1001FC0028000020C400002070000020780000209F
:10020C003000002080B489B000AF78600B467B8052
:10021C000023FB830023BB617B68002B2FD10023C1
:10022C0068E0FB8BDB0B9BB2BB60FB8B5B00FB8347
:10023C007B681B781A46BB6942FA03F31BB203F0C6
:10024C0001031AB2B7F91E3013431BB2FB83BB690F
:10025C000133BB61BB69072B07DD0023BB617B68E6
:10026C0001337B607B88013B7B80BB68002B06D015
:10027C00FB8B83F4FF4383F07A03DB43FB837B88A4
:10028C00002BCED100237B6113E0FB8BDB0B9BB2ED
:10029C00BB60FB8B5B00FB83BB68002B06D0FB8B2E
:1002AC0083F4FF4383F07A03DB43FB837B690133E5
:1002BC007B617B690F2BE8DD00237B824FF40043CD
:1002CC007B610123FB6011E0FA8B7B691340002BEF
:1002DC0006D0FB681AB2B7F9123013431BB27B82FB
:1002EC007B695B107B61FB685B00FB607B69002BAF
:1002FC00EAD17B8A18462437BD4680BC7047000083
:10030C0080B582B000AF00F00DFB00F0C3F800F038
:10031C0055F900F0FBF800F025F901225449554835
:10032C0001F022FC05220021534801F0E7FF0522D1
:10033C000021524801F0E2FF05220021504801F053
:10034C00DDFF052200214F4801F0D8FF02233B714D
:10035C00002210214C4800F047FE002220214A4880
:10036C0000F042FE322000F03FFB391D0A2301222F
:10037C00464801F0BAFA052200213F4801F0BEFFC1
:10038C000A2305223C49414801F048FB322000F089
:10039C002BFB012220213C4800F026FE322000F0ED
:1003AC0023FB391D0A230122384801F09EFA05224D
:1003BC000021324801F0A2FF0A2305222F493348BD
:1003CC0001F02CFB322000F00FFB002220212E48E4
:1003DC0000F00AFE012210212B4800F005FE32200D
:1003EC0000F002FB391D0A230122284801F07DFA96
:1003FC0005220021224801F081FF0A230522204911
:10040C00224801F00BFB322000F0EEFA01222021F1
:10041C001D4800F0E9FD322000F0E6FA391D0A23F0
:10042C0001221A4801F061FA05220021154801F059
:10043C0065FF0A2305221349144801F0EFFA322014
:10044C0000F0D2FA00224FF40051114800F0CCFD1C
:10045C004FF4967000F0C8FA01224FF400510C488A
:10046C0000F0C2FD4FF4967000F0BEFA6EE700BFCC
:10047C00C00000203000002028000020C400002014
:10048C00700000207800002000080140800000204F
:10049C000010014080B590B000AF07F1180328227E
:1004AC000021184601F02AFF3B1D00221A605A60F9
:1004BC009A60DA601A610223BB610123BB621023CC
:1004CC00FB6200237B6307F11803184600F0A4FDC0
:1004DC000346002B01D000F0D1F80F237B600023E2
:1004EC00BB600023FB6000233B6100237B613B1D51
:1004FC000021184601F010F80346002B01D000F043
:10050C00BDF800BF4037BD4680BD000080B500AFD0
:10051C00124B134A1A60114B4FF416525A600F4B80
:10052C004FF480529A600D4B0022DA600B4B4FF463
:10053C0080621A61094B0C225A61084B00229A61A5
:10054C00064B0022DA61054801F082F90346002BC4
:10055C0001D000F093F800BF80BD00BF80000020E8
:10056C000044004080B500AF124B134A1A60114B87
:10057C004FF416525A600F4B4FF480529A600D4B49
:10058C000022DA600B4B4FF480621A61094B0C228B
:10059C005A61084B00229A61064B0022DA61054829
:1005AC0001F056F90346002B01D000F067F800BFAC
:1005BC0080BD00BF300000200048004080B588B0EE
:1005CC0000AF07F1100300221A605A609A60DA60DB
:1005DC00274B9B69264A43F010039361244B9B697C
:1005EC0003F01003FB60FB68214B9B69204A43F02E
:1005FC00040393611E4B9B6903F00403BB60BB684F
:10060C001B4B9B691A4A43F008039361184B9B6977
:10061C0003F008037B607B6800224FF4C04115484F
:10062C0000F0E2FC00223021134800F0DDFC4FF416
:10063C00C0433B6101237B610023BB610223FB614F
:10064C0007F1100319460B4800F074FB30233B6193
:10065C0001237B610023BB610223FB6107F11003C3
:10066C001946054800F066FB00BF2037BD4680BD2B
:10067C0000100240001001400008014080B400AF9F
:10068C0000BFBD4680BC704780B485B000AF154B31
:10069C009B69144A43F001039361124B9B6903F06D
:1006AC000103BB60BB680F4BDB690E4A43F0805300
:1006BC00D3610C4BDB6903F080537B607B680A4B86
:1006CC005B68FB60FB6823F0E063FB60FB6843F056
:1006DC000073FB60044AFB68536000BF1437BD46CF
:1006EC0080BC7047001002400000014080B58AB009
:1006FC0000AF786007F1180300221A605A609A6004
:10070C00DA607B681B683B4A934230D13A4BDB6919
:10071C00394A43F40033D361374BDB6903F40033BC
:10072C007B617B69344B9B69334A43F004039361CF
:10073C00314B9B6903F004033B613B690423BB61B0
:10074C000223FB6103237B6207F1180319462B4834
:10075C0000F0F0FA0823BB610023FB6100233B622D
:10076C0007F118031946254800F0E4FA3EE07B68CF
:10077C001B68234A934239D11F4BDB691E4A43F451
:10078C008023D3611C4BDB6903F48023FB60FB6883
:10079C00194B9B69184A43F008039361164B9B69EC
:1007AC0003F00803BB60BB684FF48063BB6102239A
:1007BC00FB6103237B6207F118031946114800F013
:1007CC00B9FA4FF40063BB610023FB6100233B6269
:1007DC0007F1180319460B4800F0ACFA002200216F
:1007EC00272000F0FAF9272000F013FA00BF283771
:1007FC00BD4680BD0044004000100240000801408E
:10080C0000480040000C014080B400AF00BFBD4662
:10081C0080BC704780B400AFFEE780B400AFFEE749
:10082C0080B400AFFEE780B400AFFEE780B400AF49
:10083C0000BFBD4680BC704780B400AF00BFBD4652
:10084C0080BC704780B400AF00BFBD4680BC704711
:10085C0080B500AF00F0ACF800BF80BD80B500AF34
:10086C00024801F0D5F900BF80BD00BF3000002068
:10087C0080B400AF154B1B68144A43F0010313609E
:10088C00124B5A681149124B13404B600F4B1B68AB
:10089C000E4A23F0847323F4803313600B4B1B68D4
:1008AC000A4A23F480231360084B5B68074A23F43D
:1008BC00FE035360054B4FF41F029A60054B4FF03B
:1008CC0000629A6000BFBD4680BC704700100240B9
:1008DC000000FFF800ED00E0002103E00B4B5B583B
:1008EC00435004310A480B4B42189A42F6D30A4A39
:1008FC0002E0002342F8043B084B9A42F9D3FFF77D
:10090C00B7FF01F0D7FCFFF7FBFC7047642300082E
:10091C00000000200C0000200C000020D000002063
:10092C00FEE7000080B500AF084B1B68074A43F098
:10093C0010031360032000F045F9002000F008F8C4
:10094C00FFF7A2FE0023184680BD00BF0020024026
:10095C0080B582B000AF7860124B1A68124B1B78CE
:10096C0019464FF47A73B3FBF1F3B2FBF3F3184669
:10097C0000F05DF90346002B01D001230EE07B68EB
:10098C000F2B0AD8002279684FF0FF3000F025F9C0
:10099C00064A7B681360002300E0012318460837E1
:1009AC00BD4680BD0000002008000020040000208F
:1009BC0080B400AF054B1B781A46054B1B681344DB
:1009CC00034A136000BFBD4680BC7047080000207E
:1009DC00CC00002080B400AF024B1B681846BD460B
:1009EC0080BC7047CC00002080B584B000AF78602C
:1009FC00FFF7F0FFB8607B68FB60FB68B3F1FF3F6B
:100A0C0005D0094B1B781A46FB681344FB6000BFEA
:100A1C00FFF7E0FF0246BB68D31AFA689A42F7D890
:100A2C0000BF1037BD4680BD0800002080B485B0E3
:100A3C0000AF78607B6803F00703FB600C4BDB684E
:100A4C00BB60BA684FF6FF031340BB60FB681A0229
:100A5C00BB68134343F0BF6343F40033BB60044AE9
:100A6C00BB68D36000BF1437BD4680BC704700BF65
:100A7C0000ED00E080B400AF044BDB681B0A03F010
:100A8C0007031846BD4680BC704700BF00ED00E070
:100A9C0080B483B000AF0346FB7197F90730002B8D
:100AAC000BDBFB7903F01F02064997F907305B0952
:100ABC00012000FA02F241F8232000BF0C37BD469A
:100ACC0080BC704700E100E080B483B000AF034607
:100ADC003960FB7197F90730002B0ADB3B68DAB2FF
:100AEC000C4997F907301201D2B20B4483F800235A
:100AFC000AE03B68DAB20849FB7903F00F03043BC8
:100B0C001201D2B20B441A7600BF0C37BD4680BC22
:100B1C00704700BF00E100E000ED00E080B489B058
:100B2C0000AFF860B9607A60FB6803F00703FB6103
:100B3C00FB69C3F10703042B28BF0423BB61FB69CA
:100B4C000433062B02D9FB69033B00E000237B61D5
:100B5C004FF0FF32BB6902FA03F3DA43BB681A4069
:100B6C007B699A404FF0FF317B6901FA03F3D9435B
:100B7C007B680B40134318462437BD4680BC704736
:100B8C0080B582B000AF78607B68013BB3F1807FA9
:100B9C0001D301230FE00A4A7B68013B53600F210C
:100BAC004FF0FF30FFF790FF054B00229A60044B8B
:100BBC0007221A60002318460837BD4680BD00BFC7
:100BCC0010E000E080B582B000AF78607868FFF785
:100BDC002DFF00BF0837BD4680BD80B586B000AF85
:100BEC000346B9607A60FB7300237B61FFF742FF19
:100BFC0078617A68B9687869FFF790FF024697F9CF
:100C0C000F3011461846FFF75FFF00BF1837BD467F
:100C1C0080BD80B582B000AF0346FB7197F90730F9
:100C2C001846FFF735FF00BF0837BD4680BD80B5BD
:100C3C0082B000AF78607868FFF7A2FF03461846D1
:100C4C000837BD4680BD000080B584B000AF786029
:100C5C000023FB737B6893F82130022B05D07B6853
:100C6C0004229A630123FB7351E07B681B681A68AA
:100C7C007B681B6822F00E021A607B681B681A687E
:100C8C007B681B6822F001021A607B681B68224A91
:100C9C00934229D07B681B68204A934222D07B6800
:100CAC001B681F4A93421AD07B681B681D4A9342EB
:100CBC0012D07B681B681C4A93420AD07B681B6865
:100CCC001A4A934202D14FF480130EE04FF0807316
:100CDC000BE04FF4803308E04FF4805305E04FF401
:100CEC00807302E0102300E00123114A53607B68FB
:100CFC00012283F821207B68002283F820207B6866
:100D0C005B6B002B03D07B685B6B78689847FB7B35
:100D1C0018461037BD4680BD080002401C0002403A
:100D2C003000024044000240580002406C00024077
:100D3C000000024080B48BB000AF786039600023B3
:100D4C007B6200233B6227E101227B6A02FA03F3F8
:100D5C00FB613B681B68FA691340BB61BA69FB69AC
:100D6C009A4240F016813B685B68122B34D0122BF0
:100D7C000DD8022B2BD0022B04D8002B31D0012BF9
:100D8C001CD048E0032B43D0112B1BD043E0894AE5
:100D9C00934226D0874A934206D8874A934220D062
:100DAC00864A93421DD036E0854A934219D0854A33
:100DBC00934216D0844A934213D02CE03B68DB68F4
:100DCC003B6228E03B68DB6804333B6223E03B6812
:100DDC00DB6808333B621EE03B68DB680C333B622C
:100DEC0019E03B689B68002B02D104233B6212E0A4
:100DFC003B689B68012B05D108233B627B68FA6931
:100E0C001A6108E008233B627B68FA695A6102E0C8
:100E1C0000233B6200BFBB69FF2B01D87B6801E05C
:100E2C007B6804337B61BB69FF2B02D87B6A9B0018
:100E3C0002E07B6A083B9B003B617B691A680F21CF
:100E4C003B6901FA03F3DB431A40396A3B6901FA47
:100E5C0003F31A437B691A603B685B6803F08053A9
:100E6C00002B00F09680594B9B69584A43F00103C4
:100E7C009361564B9B6903F00103BB60BB68544AFA
:100E8C007B6A9B08023352F82330FB607B6A03F0C9
:100E9C0003039B000F2202FA03F3DB43FA681340AF
:100EAC00FB607B684B4A934213D07B684A4A93425F
:100EBC000DD07B68494A934207D07B68484A9342DD
:100ECC0001D1032306E0042304E0022302E0012302
:100EDC0000E000237A6A02F0030292009340FA6861
:100EEC001343FB603A497B6A9B080233FA6841F86A
:100EFC0023203B685B6803F48033002B06D0394B0E
:100F0C001A683849BB6913430B6006E0354B1A6805
:100F1C00BB69DB43334913400B603B685B6803F4EC
:100F2C000033002B06D02F4B5A682E49BB69134354
:100F3C004B6006E02B4B5A68BB69DB4329491340D5
:100F4C004B603B685B6803F48013002B06D0254B89
:100F5C009A682449BB6913438B6006E0214B9A685D
:100F6C00BB69DB431F4913408B603B685B6803F430
:100F7C000013002B06D01B4BDA681A49BB691343CC
:100F8C00CB6006E0174BDA68BB69DB4315491340AD
:100F9C00CB607B6A01337B623B681A687B6A22FAFE
:100FAC0003F3002B7FF4D0AE00BF2C37BD4680BCC2
:100FBC00704700BF0000211000001110000012103B
:100FCC00000031100000321000002210001002400E
:100FDC000000014000080140000C014000100140DD
:100FEC00001401400004014080B483B000AF78606D
:100FFC000B467B8013467B707B78002B03D07A8862
:10100C007B681A6103E07B881A047B681A6100BF55
:10101C000C37BD4680BC704780B586B000AF786099
:10102C007B68002B01D101236CE27B681B6803F009
:10103C000103002B00F08780924B5B6803F00C03DC
:10104C00042B0CD08F4B5B6803F00C03082B12D1D4
:10105C008C4B5B6803F48033B3F5803F0BD1894B29
:10106C001B6803F40033002B6CD07B685B68002B8F
:10107C0068D1012346E27B685B68B3F5803F06D1FB
:10108C00804B1B687F4A43F4803313602EE07B68EF
:10109C005B68002B0CD17B4B1B687A4A23F48033A2
:1010AC001360784B1B68774A23F4802313601DE090
:1010BC007B685B68B3F5A02F0CD1724B1B68714A2F
:1010CC0043F4802313606F4B1B686E4A43F48033E8
:1010DC0013600BE06B4B1B686A4A23F4803313607C
:1010EC00684B1B68674A23F4802313607B685B683A
:1010FC00002B13D0FFF76EFC386108E0FFF76AFC99
:10110C0002463B69D31A642B01D90323FAE15D4BE8
:10111C001B6803F40033002BF0D014E0FFF75AFCEB
:10112C00386108E0FFF756FC02463B69D31A642B82
:10113C0001D90323E6E1534B1B6803F40033002B66
:10114C00F0D100E000BF7B681B6803F00203002BAA
:10115C0063D04C4B5B6803F00C03002B0BD0494B5A
:10116C005B6803F00C03082B1CD1464B5B6803F443
:10117C008033002B16D1434B1B6803F00203002B6A
:10118C0005D07B681B69012B01D00123BAE13D4BD3
:10119C001B6823F0F8027B685B69DB003949134359
:1011AC000B603AE07B681B69002B20D0364B012288
:1011BC001A60FFF70FFC386108E0FFF70BFC0246E2
:1011CC003B69D31A022B01D903239BE12D4B1B68DE
:1011DC0003F00203002BF0D02A4B1B6823F0F8021B
:1011EC007B685B69DB00274913430B6015E0264BDA
:1011FC0000221A60FFF7EEFB386108E0FFF7EAFB0C
:10120C0002463B69D31A022B01D903237AE11D4B09
:10121C001B6803F00203002BF0D17B681B6803F002
:10122C000803002B3AD07B689B69002B19D0174B15
:10123C0001221A60FFF7CEFB386108E0FFF7CAFB0A
:10124C0002463B69D31A022B01D903235AE10D4BF9
:10125C005B6A03F00203002BF0D0012000F0DAFAF5
:10126C001CE00A4B00221A60FFF7B4FB38610FE058
:10127C00FFF7B0FB02463B69D31A022B08D90323B4
:10128C0040E100BF00100240000042428004424294
:10129C009E4B5B6A03F00203002BE9D17B681B6851
:1012AC0003F00403002B00F0A6800023FB75974B82
:1012BC00DB6903F08053002B0DD1944BDB69934A0F
:1012CC0043F08053D361914BDB6903F08053BB60D7
:1012DC00BB680123FB758E4B1B6803F48073002BDA
:1012EC0018D18B4B1B688A4A43F480731360FFF749
:1012FC0071FB386108E0FFF76DFB02463B69D31ABE
:10130C00642B01D90323FDE0814B1B6803F480732C
:10131C00002BF0D07B68DB68012B06D17B4B1B6A62
:10132C007A4A43F0010313622DE07B68DB68002BE3
:10133C000CD1764B1B6A754A23F001031362734B75
:10134C001B6A724A23F0040313621CE07B68DB689F
:10135C00052B0CD16D4B1B6A6C4A43F004031362D2
:10136C006A4B1B6A694A43F0010313620BE0674B3B
:10137C001B6A664A23F001031362644B1B6A634ABF
:10138C0023F0040313627B68DB68002B15D0FFF796
:10139C0021FB38610AE0FFF71DFB02463B69D31ABB
:1013AC0041F28832934201D90323ABE0574B1B6ABD
:1013BC0003F00203002BEED014E0FFF70BFB3861B7
:1013CC000AE0FFF707FB02463B69D31A41F2883269
:1013DC00934201D9032395E04C4B1B6A03F00203A3
:1013EC00002BEED1FB7D012B05D1484BDB69474A25
:1013FC0023F08053D3617B68DB69002B00F0818084
:10140C00424B5B6803F00C03082B61D07B68DB69F3
:10141C00022B46D13F4B00221A60FFF7DBFA3861F2
:10142C0008E0FFF7D7FA02463B69D31A022B01D921
:10143C00032367E0354B1B6803F00073002BF0D1DE
:10144C007B681B6AB3F5803F08D1304B5B6823F493
:10145C0000327B689B682D4913434B602B4B5B68B8
:10146C0023F474127B68196A7B685B6A0B43274907
:10147C0013434B60274B01221A60FFF7ABFA38611C
:10148C0008E0FFF7A7FA02463B69D31A022B01D9F1
:10149C00032337E01D4B1B6803F00073002BF0D0C7
:1014AC002FE01C4B00221A60FFF794FA386108E019
:1014BC00FFF790FA02463B69D31A022B01D903239A
:1014CC0020E0124B1B6803F00073002BF0D118E0E6
:1014DC007B68DB69012B01D1012313E00B4B5B68AB
:1014EC00FB60FB6803F480327B681B6A9A4206D16E
:1014FC00FB6803F470127B685B6A9A4201D001238B
:10150C0000E0002318461837BD4680BD001002408D
:10151C00007000406000424280B584B000AF78603B
:10152C0039607B68002B01D10123D0E06A4B1B682A
:10153C0003F007033A689A4210D9674B1B6823F0F3
:10154C00070265493B6813430B60634B1B6803F050
:10155C0007033A689A4201D00123B8E07B681B6804
:10156C0003F00203002B20D07B681B6803F00403FC
:10157C00002B05D0594B5B68584A43F4E063536029
:10158C007B681B6803F00803002B05D0534B5B688A
:10159C00524A43F460535360504B5B6823F0F002A3
:1015AC007B689B684D4913434B607B681B6803F059
:1015BC000103002B40D07B685B68012B07D1474BA4
:1015CC001B6803F40033002B15D101237FE07B68EB
:1015DC005B68022B07D1414B1B6803F00073002B97
:1015EC0009D1012373E03D4B1B6803F00203002B70
:1015FC0001D101236BE0394B5B6823F003027B685C
:10160C005B68364913434B60FFF7E4F9F8600AE076
:10161C00FFF7E0F90246FB68D31A41F28832934295
:10162C0001D9032353E02D4B5B6803F00C027B685C
:10163C005B689B009A42EBD1274B1B6803F00703B6
:10164C003A689A4210D2244B1B6823F007022249B5
:10165C003B6813430B60204B1B6803F007033A688D
:10166C009A4201D0012332E07B681B6803F004032B
:10167C00002B08D0194B5B6823F4E0627B68DB68B5
:10168C00164913434B607B681B6803F00803002B5F
:10169C0009D0124B5B6823F460527B681B69DB003A
:1016AC000E4913434B6000F021F801460B4B5B686D
:1016BC001B0903F00F030A4AD35C21FA03F3094A0E
:1016CC001360094B1B681846FFF742F900231846B4
:1016DC001037BD4680BD00BF002002400010024004
:1016EC0044230008000000200400002090B48AB0BD
:1016FC0000AF2A4B3C1D0FCB84E80F00284B1B88F6
:10170C003B800023FB610023BB6100237B62002331
:10171C007B6100233B62234B5B68FB61FB6903F03D
:10172C000C03042B02D0082B03D02DE01E4B3B6284
:10173C002DE0FB699B0C03F00F0307F12802134407
:10174C0013F8243C7B61FB6903F48033002B13D02A
:10175C00144B5B685B0C03F0010307F12802134484
:10176C0013F8283CBB617B690F4A02FB03F2BB698F
:10177C00B2FBF3F37B6204E07B690C4A02FB03F3DC
:10178C007B627B6A3B6202E0074B3B6200BF3B6AB9
:10179C0018462837BD4690BC704700BF3023000860
:1017AC00402300080010024000127A0000093D009E
:1017BC0080B400AF024B1B681846BD4680BC704716
:1017CC000000002080B500AFFFF7F2FF0146054B8B
:1017DC005B681B0A03F00703034AD35C21FA03F38B
:1017EC00184680BD001002405423000880B500AF9D
:1017FC00FFF7DEFF0146054B5B68DB0A03F00703CE
:10180C00034AD35C21FA03F3184680BD0010024052
:10181C005423000880B485B000AF78600A4B1B6875
:10182C000A4AA2FB03235B0A7A6802FB03F3FB6000
:10183C0000BFFB685A1EFA60002BF9D100BF1437A9
:10184C00BD4680BC704700BF00000020D34D621025
:10185C0080B582B000AF78607B68002B01D101238A
:10186C003FE07B6893F83930DBB2002B06D17B6804
:10187C00002283F838207868FEF738FF7B68242232
:10188C0083F839207B681B68DA687B681B6822F454
:10189C000052DA60786800F033FC7B681B681A69C8
:1018AC007B681B6822F490421A617B681B685A693A
:1018BC007B681B6822F02A025A617B681B68DA6815
:1018CC007B681B6842F40052DA607B680022DA63A2
:1018DC007B68202283F839207B68202283F83A2009
:1018EC00002318460837BD4680BD80B588B002AFCE
:1018FC00F860B9603B601346FB8000237B61FB689A
:10190C0093F83930DBB2202B40F08380BB68002B7E
:10191C0002D0FB88002B01D101237BE0FB6893F8FC
:10192C003830012B01D1022374E0FB68012283F8CB
:10193C003820FB680022DA63FB68212283F8392007
:10194C00FFF748F87861FB68FA889A84FB68FA8894
:10195C00DA8442E0FB68DB8C9BB2013B9AB2FB68F9
:10196C00DA84FB689B68B3F5805F22D13B680093F7
:10197C007B6900228021F86800F058FA0346002B9E
:10198C0001D0032346E0BB683B613B691B881A46C8
:10199C00FB681B68C2F308025A60FB681B69002BCA
:1019AC0003D1BB680233BB6017E0BB680133BB607B
:1019BC0013E03B6800937B6900228021F86800F0FB
:1019CC0035FA0346002B01D0032323E0BB685A1CD5
:1019DC00BA601A78FB681B685A60FB68DB8C9BB298
:1019EC00002BB7D13B6800937B6900224021F8683B
:1019FC0000F01CFA0346002B01D003230AE0FB681D
:101A0C00202283F83920FB68002283F83820002339
:101A1C0000E0022318461837BD4680BD80B588B05B
:101A2C0002AFF860B9603B601346FB8000237B611A
:101A3C00FB6893F83A30DBB2202B40F09080BB6807
:101A4C00002B02D0FB88002B01D1012388E0FB681E
:101A5C0093F83830012B01D1022381E0FB6801227D
:101A6C0083F83820FB680022DA63FB68222283F8B3
:101A7C003A20FEF7AFFF7861FB68FA889A85FB681D
:101A8C00FA88DA855CE0FB68DB8D9BB2013B9AB28D
:101A9C00FB68DA85FB689B68B3F5805F2BD13B68EC
:101AAC0000937B6900222021F86800F0BFF90346FF
:101ABC00002B01D0032353E0BB683B61FB681B691F
:101ACC00002B0CD1FB681B685B689BB2C3F308034B
:101ADC009AB23B691A80BB680233BB6030E0FB688A
:101AEC001B685B689BB2DBB29AB23B691A80BB681D
:101AFC000133BB6024E03B6800937B69002220210A
:101B0C00F86800F093F90346002B01D0032327E07B
:101B1C00FB681B69002B08D1FB681B685968BB6804
:101B2C005A1CBA60CAB21A700AE0FB681B685B6880
:101B3C00DAB2BB68591CB96002F07F02D2B21A70DB
:101B4C00FB68DB8D9BB2002B9DD1FB68202283F8B8
:101B5C003A20FB68002283F83820002300E002239F
:101B6C0018461837BD4680BD80B485B000AFF8600C
:101B7C00B9601346FB80FB6893F83A30DBB2202B3C
:101B8C0040D1BB68002B02D0FB88002B01D1012374
:101B9C0039E0FB6893F83830012B01D1022332E095
:101BAC00FB68012283F83820FB68BA689A62FB68EC
:101BBC00FA889A85FB68FA88DA85FB680022DA6372
:101BCC00FB68222283F83A20FB68002283F8382035
:101BDC00FB681B68DA68FB681B6842F48072DA6089
:101BEC00FB681B685A69FB681B6842F001025A616A
:101BFC00FB681B68DA68FB681B6842F02002DA603D
:101C0C00002300E0022318461437BD4680BC704701
:101C1C0080B588B000AF78607B681B681B68FB617F
:101C2C007B681B68DB68BB617B681B685B697B61DD
:101C3C0000233B610023FB60FB6903F00F033B6156
:101C4C003B69002B0DD1FB6903F02003002B08D05E
:101C5C00BB6903F02003002B03D0786800F0CEF9A9
:101C6C00CCE03B69002B00F0AB807B6903F00103F7
:101C7C00002B05D1BB6903F49073002B00F0A080FE
:101C8C00FB6903F00103002B0AD0BB6903F48073DA
:101C9C00002B05D07B68DB6B43F001027B68DA63B9
:101CAC00FB6903F00403002B0AD07B6903F00103EA
:101CBC00002B05D07B68DB6B43F002027B68DA6398
:101CCC00FB6903F00203002B0AD07B6903F00103CC
:101CDC00002B05D07B68DB6B43F004027B68DA6376
:101CEC00FB6903F00803002B0AD07B6903F00103A6
:101CFC00002B05D07B68DB6B43F008027B68DA6352
:101D0C007B68DB6B002B78D0FB6903F02003002B86
:101D1C0007D0BB6903F02003002B02D0786800F0D9
:101D2C006DF97B681B685B6903F04003002B14BFE3
:101D3C0001230023DBB2FB607B68DB6B03F0080341
:101D4C00002B02D1FB68002B31D0786800F0B8F87A
:101D5C007B681B685B6903F04003002B23D07B6816
:101D6C001B685A697B681B6822F040025A617B68C9
:101D7C005B6B002B13D07B685B6B224A5A637B68CE
:101D8C005B6B1846FEF760FF0346002B16D07B6892
:101D9C005B6B5B6B7A68526B104698470EE0786809
:101DAC0000F03BF80AE0786800F037F806E0786855
:101DBC0000F033F87B680022DA631EE000BF1CE001
:101DCC00FB6903F08003002B08D0BB6903F0800390
:101DDC00002B03D0786800F0A4F80FE0FB6903F047
:101DEC004003002B0AD0BB6903F04003002B05D045
:101DFC00786800F0EBF800BF00E000BF2037BD466C
:101E0C0080BD00BF071F000880B483B000AF7860AE
:101E1C0000BF0C37BD4680BC704780B483B000AFA8
:101E2C00786000BF0C37BD4680BC704780B584B06D
:101E3C0000AFF860B9603B601346FB712CE0BB69E6
:101E4C00B3F1FF3F28D0BB69002B07D0FEF7C2FDD2
:101E5C0002463B68D31ABA699A421DD2FB681B68CA
:101E6C00DA68FB681B6822F4D072DA60FB681B68C6
:101E7C005A69FB681B6822F001025A61FB68202238
:101E8C0083F83920FB68202283F83A20FB68002273
:101E9C0083F8382003230FE0FB681B681A68BB68C3
:101EAC001340BA689A420CBF01230023DBB21A46D6
:101EBC00FB799A42C3D0002318461037BD4680BD2B
:101ECC0080B483B000AF78607B681B68DA687B688D
:101EDC001B6822F49072DA607B681B685A697B6815
:101EEC001B6822F001025A617B68202283F83A2099
:101EFC0000BF0C37BD4680BC704780B584B000AFC6
:101F0C0078607B685B6AFB60FB680022DA85FB68A3
:101F1C000022DA84F868FFF780FF00BF1037BD4657
:101F2C0080BD80B485B000AF78607B6893F83930A1
:101F3C00DBB2212B44D17B689B68B3F5805F1AD14F
:101F4C007B681B6AFB60FB681B881A467B681B68F6
:101F5C00C2F308025A607B681B69002B05D17B68B1
:101F6C001B6A9A1C7B681A620EE07B681B6A5A1CFF
:101F7C007B681A6208E07B681B6A591C7A681162DC
:101F8C001A787B681B685A607B68DB8C9BB2013BC0
:101F9C009BB27A681946D184002B0FD17B681B68E1
:101FAC00DA687B681B6822F08002DA607B681B6849
:101FBC00DA687B681B6842F04002DA60002300E0BC
:101FCC00022318461437BD4680BC704780B582B0DA
:101FDC0000AF78607B681B68DA687B681B6822F04E
:101FEC004002DA607B68202283F839207868FFF79A
:101FFC000BFF002318460837BD4680BD80B584B062
:10200C0000AF78607B6893F83A30DBB2222B71D149
:10201C007B689B68B3F5805F23D17B689B6AFB6010
:10202C007B681B69002B0ED17B681B685B689BB2BD
:10203C00C3F308039AB2FB681A807B689B6A9A1CEC
:10204C007B689A6229E07B681B685B689BB2DBB299
:10205C009AB2FB681A807B689B6A5A1C7B689A62EE
:10206C001BE07B681B69002B0AD17B681B685868D6
:10207C007B689B6A591C7A689162C2B21A700CE038
:10208C007B681B685B68DAB27B689B6A581C796852
:10209C00886202F07F02D2B21A707B68DB8D9BB231
:1020AC00013B9BB27A681946D185002B20D17B6805
:1020BC001B68DA687B681B6822F02002DA607B6898
:1020CC001B68DA687B681B6822F48072DA607B68B4
:1020DC001B685A697B681B6822F001025A617B6895
:1020EC00202283F83A207868FEF72AF8002302E0D1
:1020FC00002300E0022318461037BD4680BD0000C7
:10210C0080B584B000AF78607B681B681B6923F4D2
:10211C0040517B68DA687B681B680A431A617B68EC
:10212C009A687B681B691A437B685B691343FB6085
:10213C007B681B68DB6823F4B05323F00C037A68CC
:10214C001268F9680B43D3607B681B685B6923F4E6
:10215C0040717B689A697B681B680A435A617B688B
:10216C001B68524A93424ED1FFF740FBB860BA68E5
:10217C0013469B0013449A001A447B685B689B00CF
:10218C00B2FBF3F34A4AA2FB03235B091901BA68B9
:10219C0013469B0013449A001A447B685B689B00AF
:1021AC00B2FBF3F2424BA3FB02035B09642000FB7E
:1021BC0003F3D31A1B0132333D4AA2FB03235B0901
:1021CC0003F0F0031944BA6813469B0013449A00B9
:1021DC001A447B685B689B00B2FBF3F2344BA3FBA5
:1021EC0002035B09642000FB03F3D31A1B01323397
:1021FC002F4AA2FB03235B0903F00F027B681B68C9
:10220C000A449A604DE0FFF7DDFAB860BA681346ED
:10221C009B0013449A001A447B685B689B00B2FBDA
:10222C00F3F3234AA2FB03235B091901BA68134693
:10223C009B0013449A001A447B685B689B00B2FBBA
:10224C00F3F21B4BA3FB02035B09642000FB03F3BB
:10225C00D31A1B013233164AA2FB03235B0903F08A
:10226C00F0031944BA6813469B0013449A001A44AD
:10227C007B685B689B00B2FBF3F20D4BA3FB020384
:10228C005B09642000FB03F3D31A1B013233084AA9
:10229C00A2FB03235B0903F00F027B681B680A4453
:1022AC009A6000BF1037BD4680BD00BF00380140AA
:1022BC001F85EB5170B500250C4E0D4CA41BA410C2
:1022CC00A54209D100F022F800250A4E0A4CA41BA5
:1022DC00A410A54205D170BD56F82530984701359C
:1022EC00EEE756F8253098470135F2E75C230008F5
:1022FC005C2300085C2300086023000803460244AA
:10230C00934200D1704703F8011BF9E7F8B500BF01
:10231C00F8BC08BC9E467047F8B500BFF8BC08BCBA
:04232C009E46704712
:1023300002030405060708090A0B0C0D0E0F101006
:102340000102000000000000000000000102030480
:0C23500006070809000000000102030459
:04235C003101000843
:042360000D01000863
:0C2364000024F400100000000100000044
:04000005080008E502
:00000001FF
